:020000040800F2
:100000000080002019390008E90B0008EB0B0008FC
:10001000ED0B0008EF0B0008F10B000800000000DA
:10002000000000000000000000000000F30B0008CA
:10003000F50B000800000000F70B0008F90B0008A2
:100040006939000869390008693900086939000808
:1000500069390008693900086939000869390008F8
:1000600069390008693900086939000869390008E8
:1000700069390008693900086939000869390008D8
:100080006939000800000000693900086939000872
:1000900069390008693900086939000869390008B8
:1000A00069390008693900086939000869390008A8
:1000B0006939000869390008693900086939000898
:1000C0006939000869390008693900086939000888
:1000D0006939000869390008693900086939000878
:1000E0006939000869390008693900086939000868
:1000F0006939000869390008693900080000000002
:10010000000000006939000800000000693900089B
:1001100069390008000000006939000869390008E1
:100120006939000869390008693900086939000827
:10013000693900080000000000000000693900086B
:10014000693900086939000800000000000000005B
:10015000000000000000000000000000000000009F
:1001600000000000000000000000000069390008E5
:1001700069390008000000000000000000000000D5
:1001800000000000693900080000000000000000C5
:10019000000000000000000000000000000000005F
:1001A00000000000000000006939000869390008FB
:1001B0006939000869390008693900080000000041
:1001C0000000000069390008000000000000000085
:0801D0006939000869390008D3
:1001D80053B94AB9002908BF00281CBF4FF0FF31A6
:1001E8004FF0FF3000F00CB8ADF1080C6DE904CE0B
:1001F80003F0E4FBDDF804E0DDE9022304B0704716
:10020800704700BF10B5054C237833B9044B13B1C0
:100218000448AFF300800123237010BD0C000020B8
:10022800000000008C3C000808B5034B1BB10349D3
:100238000348AFF3008008BD000000001000002054
:100248008C3C000830B58BB00024059406940794C4
:1002580008940994284BDA6C42F00402DA64DA6CE8
:1002680002F004020192019ADA6C42F04002DA6468
:10027800DA6C02F040020292029ADA6C42F0010251
:10028800DA64DA6C02F001020392039ADA6C42F043
:100298000202DA64DB6C03F002030493049B174D3B
:1002A80001224FF48041284601F0D8FD22464FF440
:1002B8000041284601F0D2FD4FF440430593012345
:1002C80006930794089405A9284601F0EFFC4FF41B
:1002D800806305930694079405A9094801F0E6FC94
:1002E8004FF4807305930694079405A9054801F017
:1002F800DDFC0BB030BD00BF001002400008004814
:10030800001800480004004872B6FEE710B58CB02B
:10031800002409940A940B942022214601A803F092
:1003280045FB1E484FF0A04303604FF44033436041
:100338008460C46004614461042383610477447762
:100348000123036280F82440C462046380F83840C3
:10035800C46380F8404000F0B7FCC8B90023099393
:1003680009A90E4801F03EF8A0B90D4B01930623E8
:100378000293002303930B4A0492042205920693E6
:100388000DEB0201054800F0BFFD28B90CB010BD07
:10039800FFF7BAFFFFF7B8FFFFF7B6FF88000020A6
:1003A8000200300400007F4000B589B020220021FF
:1003B800684603F0FBFA1A481A4B03604FF44033BF
:1003C800436000238360C360036143610422826148
:1003D800037743770122026280F82430C362036303
:1003E80080F83830C36380F8403000F06DFC90B975
:1003F8000D4B009306230193002302930B4A0392AB
:100408000422049205936946054800F07DFD20B951
:1004180009B05DF804FBFFF777FFFFF775FF00BF32
:10042800F4000020000100500800900C00007F40FC
:1004380070B51048104B0360002343608360C360AD
:100448000122027442748374142646611025856162
:100458000D24C4610221016246628562C46201639F
:1004680042638363C36301F0D9F800B970BDFFF735
:100478004BFF00BF600100200064004010B598B039
:1004880000241594169417940E940F9410941194B4
:100498001294139414943422214601A803F086FA86
:1004A8002848294B0360446084604FF6FF73C3609B
:1004B80004614461846102F0B9FC002838D100234A
:1004C80015931693179315A91E4802F01FFE0028CE
:1004D80030D100220E920F92109211921292139222
:1004E80014920EA9174802F047FD28BB04220EA952
:1004F800144802F041FD08BB0023019302930393C3
:10050800049305934FF400520692079308930993B6
:100518004FF000720A920B930C930D9301A90948AE
:1005280002F03EFE60B9074800F0CCFA18B010BDE2
:10053800FFF7EAFEFFF7E8FEFFF7E6FEFFF7E4FE47
:10054800FFF7E2FEC4010020002C014008B5154861
:10055800154B03604FF4E133436000238360C360AD
:1005680003610C2242618361C36103624362836257
:1005780003F00BF970B900210A4803F07EF958B965
:100588000021084803F09EF940B9064803F056F9DF
:1005980030B908BDFFF7B8FEFFF7B6FEFFF7B4FEA7
:1005A800FFF7B2FEF40200200038014000B58BB01E
:1005B80000230793089309930093019302930393ED
:1005C80004930593069317484FF0804202604360F6
:1005D80083604FF0FF32C2600361836102F056FC12
:1005E800C8B900230793099307A90E4802F08EFDA6
:1005F80098B96023009300230193029304930C227B
:100608006946084802F0EDFC48B9064800F05AFA75
:100618000BB05DF804FBFFF777FEFFF775FEFFF7F9
:1006280073FE00BFA802002008B50948094B036003
:100638000023436083604FF6FF72C2600361436129
:10064800836102F0C3FB00B908BDFFF75DFE00BF80
:10065800100200200044014008B50948094B036016
:100668000023436083604FF6FF72C26003614361F9
:10067800836102F0ABFB00B908BDFFF745FE00BF80
:100688005C0200200048014000B589B000230293B5
:10069800039302220492012205920693079302A96A
:1006A8001B4801F0A5F848BB00230093022211461D
:1006B800174801F0D0F818BB154801F0EDF808BB51
:1006C80000220121124801F099F9E8B90022082115
:1006D8000F4801F093F9C8B90E4B40F221321A6065
:1006E80000225A609A604FF40031D9601A615A6149
:1006F8009A61DA611A6209B05DF804FBFFF704FE3B
:10070800FFF702FEFFF700FEFFF7FEFDFFF7FCFD17
:10071800600100206000002010B5A4B0382200213C
:1007280016A803F043F90024119412941394149416
:10073800159444222146684603F038F9204601F012
:100748009BFB022316934FF48072199240221A924F
:100758001D931E9301221F9214222092219322930B
:10076800239316A801F042FCE8B90F231193032341
:1007780012930023139314931593042111A801F0E5
:10078800EDFE90B949F201030093002301934FF065
:1007980000730C934FF000530F93684602F004F86F
:1007A80028B924B010BDFFF7AFFDFFF7ADFDFFF787
:1007B800ABFD000008B500F051FAFFF7ADFFFFF7F9
:1007C80041FDFFF7A3FDFFF7EFFDFFF731FEFFF750
:1007D80055FEFFF7BBFEFFF7E9FEFFF725FFFFF722
:1007E8003BFFFFF751FF0DE0154801F093F90A2090
:1007F80000F056FA4FF40041124801F034FB64202F
:1008080000F04EFA104B114A12781A70AD225A7045
:100818000B4C4021204601F0E3F80D4B18704021A5
:10082800204601F0DDF80028DED00A4B0A4A4021B4
:10083800204601F049F80028D6D0FFF765FD00BF33
:1008480060010020000800485800002084030020B0
:1008580084000020280000203000002011F0010F43
:1008680000D1704708B5074B074A402101F02CF822
:1008780028B94FF48041054801F0F5FA08BDFFF7A3
:1008880043FD00BF28000020300000200008004879
:1008980011F0080F00D1704708B5074B074A4121EE
:1008A80001F012F828B94FF48041054801F0DBFA4D
:1008B80008BDFFF729FD00BF2800002030000020F8
:1008C8000008004800B583B00B4B1A6E42F00102D5
:1008D8001A661A6E02F001020092009A9A6D42F0AE
:1008E80080529A659B6D03F080530193019B01F040
:1008F80049FB03B05DF804FB0010024000B58BB063
:100908000023059306930793089309930368B3F1AB
:10091800A04F05D0274A934227D00BB05DF804FBBF
:10092800254A136801331360012B13D0234BDA6C6B
:1009380042F00102DA64DB6C03F001030293029BCC
:100948000F2305930323069305A94FF0904001F068
:10095800ADF9E2E7194BDA6C42F40052DA64DB6C69
:1009680003F400530193019BE0E7134A1368013332
:100978001360012B13D0114BDA6C42F00102DA64D8
:10098800DB6C03F001030493049BC023059303234A
:10099800069305A94FF0904001F088F9BDE7074B91
:1009A800DA6C42F40052DA64DB6C03F4005303930C
:1009B800039BE0E70001005088030020001002407C
:1009C80000B589B000230393049305930693079316
:1009D8000268134B9A4202D009B05DF804FB03F594
:1009E800D6339A6D42F000729A659A6D02F00072E1
:1009F8000192019ADA6C42F00102DA64DB6C03F0CE
:100A080001030293029B4FF4C05303930223049300
:100A18000923079303A94FF0904001F047F9DBE75A
:100A2800006400400268094B9A4200D0704782B0C7
:100A380003F564431A6E42F400621A661B6E03F4EF
:100A480000630193019B02B0704700BF002C014076
:100A58000368B3F1804F00D0704782B003F50433C8
:100A68009A6D42F001029A659B6D03F001030193B0
:100A7800019B02B07047000082B003680E4A93429F
:100A880004D00E4A93420CD002B070470C4B1A6E39
:100A980042F400321A661B6E03F400330093009B85
:100AA800F2E7074B1A6E42F480221A661B6E03F4B3
:100AB80080230193019BE7E700440140004801407F
:100AC8000010024030B589B00023039304930593C6
:100AD800069307930368264A934204D0B3F1804FE4
:100AE8002DD009B030BD234BDA6C42F00202DA6433
:100AF800DA6C02F002020092009ADA6C42F001020B
:100B0800DA64DB6C03F001030193019B4FF4C043EB
:100B18000393022504950624079403A9164801F0B7
:100B2800C5F84FF440730393049500230593069387
:100B3800079403A94FF0904001F0B8F8D1E703F506
:100B48000433DA6C42F00102DA64DB6C03F001036F
:100B58000293029B4FF480630393022304930A23B6
:100B6800079303A94FF0904001F0A0F8B9E700BF40
:100B7800002C0140001002400004004800B589B074
:100B88000023039304930593069307930268124B7B
:100B98009A4202D009B05DF804FB03F558431A6E77
:100BA80042F480421A661A6E02F480420192019A57
:100BB800DA6C42F00202DA64DB6C03F0020302939F
:100BC800029BC0230393022304930723079303A9DB
:100BD800024801F06BF8DDE70038014000040048E6
:100BE800FEE7FEE7FEE7FEE7FEE77047704770475F
:100BF80008B500F043F808BD034AD2F8883043F43A
:100C08007003C2F88830704700ED00E0104B1B6895
:100C18000BB90120704710B504464FF47A70B0FB49
:100C2800F3F30C4A1068B0FBF3F000F0AFFC68B9BE
:100C38000F2C01D901200AE0002221464FF0FF3095
:100C480000F06CFC044B1C60002000E0012010BD8B
:100C580004000020000000200800002010B5032038
:100C680000F04AFC0020FFF7D1FF10B10124204614
:100C780010BD0446FFF726FEF9E70000034A136893
:100C8800034909680B441360704700BF8C030020B8
:100C980004000020014B1868704700BF8C03002037
:100CA80038B50446FFF7F6FF0546B4F1FF3F02D01A
:100CB800044B1B681C44FFF7EDFF401BA042FAD30E
:100CC80038BD00BF0400002030B583B00023019375
:100CD800002800F00D810446C36D13B323689A6899
:100CE80012F0005F05D09A6822F0204222F03F02FD
:100CF8009A602268936813F0805F1FD1936823F08D
:100D0800104323F03F0343F080539360794B1B68F3
:100D18009B09794AA2FB03239B0901335B000193DA
:100D280009E0FFF7EBFD0023236684F85830D5E788
:100D3800019B013B0193019B002BF9D12268936829
:100D480013F0805F40F09C80E36D43F01003E3658F
:100D5800236E43F0010323660120936813F0040314
:100D680000D00123E16D11F0100F40F0BA80002B84
:100D780040F0B780E36D23F4817343F00203E36529
:100D8800936813F0010F15D14FF0A0439A6812F041
:100D9800010200D00122594B9B6813F0010300D0D7
:100DA8000123134306D1636855498A6822F47C12EB
:100DB80013438B60627FE36B43EA4233E268134379
:100DC800A268134394F8242043EA0243012A59D025
:100DD800E26A22B102F47872216B0A431343216854
:100DE800CD68484A2A401A43CA602268136923F02A
:100DF8004063616B0B43136121688B6813F0040334
:100E080000D001238A6812F0080200D0012243BBF7
:100E18003ABB237F94F83820520042EA8332CB68E9
:100E280023F4804323F002031343CB60236973B395
:100E38002268136943F4803313612268D2F8C03002
:100E480023F47F5323F03F0321690B43C2F8C030DA
:100E580094F84030012B29D02268136923F001034C
:100E680013616369012B33D02268136B23F00F03DE
:100E78001363E36D23F0030343F00103E36535E0F7
:100E880000206AE7A26A013A43EA4243A0E72268DF
:100E9800136923F4803313612268D2F8C03023F435
:100EA8007F5323F03F03C2F8C030D1E721680B69B4
:100EB80023F4FF6323F00403626CA56C2A43E56CFA
:100EC8002A43256D2A43134343F001030B61C8E706
:100ED80021680B6B23F00F03226A013A13430B635B
:100EE800C7E7E36D43F01003E365012003B030BDAD
:100EF8000120FBE700000020632D3E0500010050A3
:100F0800000300500740F0FFF0B583B000220192C3
:100F180090F85820012A00F05A820346012280F8EE
:100F280058200568A86810F0040F09D0DA6D42F05F
:100F38002002DA650120002283F8582003B0F0BDB2
:100F48004C683035220A920002F00C02A85804F0CE
:100F58001F0E1F2404FA0EF420EA04000C68C4F3E0
:100F6800846C0CFA0EFC40EA0C00A85018688268E1
:100F780012F0040200D00122846814F0080400D0A2
:100F88000124002A4DD1002C4BD18D68B5F1004FBA
:100F98007FD00F6814307A0E920002F0040286584F
:100FA800C7F3045E072707FA0EF726EA070C05FAC7
:100FB8000EF54CEA050585501868426922F0004292
:100FC80042614D691868C268C2F3C1025200954077
:100FD8000E69042E75D0603050F82670A74A3A4042
:100FE8000F6807F0F8473D432A4342F0004240F8B3
:100FF80026201A680E698869603252F8265025F052
:101008008075284342F826001A680D69087F012870
:1010180054D0603252F8250020F00070044342F8A2
:1010280025401868826812F0010F17D10A68CD6848
:10103800D0F8B040C2F3120C24EA0C0405F0180CE6
:101048008F4D25FA0CF52A40C2F312022243C0F84C
:10105800B020C8688B4A904200F09B800A688A4991
:101068000A4200F0AC818949896801F0E070884C37
:10107800A24200F05B81874CA24200F05781864C67
:10108800A24200F07981854CA24200F087810020BD
:1010980051E70D6814306A0E920002F00402865877
:1010A800C5F30455072707FA05F526EA050585500F
:1010B8001868426942F00042426182E74FF00074CA
:1010C800A7E7026E046EC4F384640A68C2F31205CB
:1010D80085BBC2F38462944234D01C68626E606E31
:1010E800C0F384600A68C2F3120585BBC2F3846248
:1010F800904234D01C68A26EA06EC0F384600A6867
:10110800C2F3120585BBC2F38462904234D01C68D6
:10111800E26EE06EC0F384600A68C2F3120585BB14
:10112800C2F3846290427FF47CAFE26E22F0004208
:10113800E26676E792FAA2F212B1B2FA82F2CAE74E
:101148002022C8E7026E22F000420266C5E792FA42
:10115800A2F212B1B2FA82F2CAE72022C8E7626E9E
:1011680022F000426266C5E792FAA2F212B1B2FA20
:1011780082F2CAE72022C8E7A26E22F00042A266E5
:10118800C5E792FAA2F212B1B2FA82F2CAE72022B5
:10119800C8E71C680A68C2F31205002D36D1900E04
:1011A800013000F01F0009288CBF00200120002812
:1011B80076D0002D39D1900E0130800600F0F8402D
:1011C800002D3ED1970E013707F01F070126BE40BC
:1011D8003043002D43D1920E013202F01F0202EB80
:1011E8004202120510438D6804F11407420E920062
:1011F80002F00402BC58C0F304500726864024EAD3
:10120800060C85404CEA0505BD5027E792FAA2F086
:1012180048B1B0FA80F0013000F01F0009288CBFF7
:1012280000200120C3E72020F5E792FAA2F030B1B0
:10123800B0FA80F00130800600F0F840C0E72020C6
:10124800F8E792FAA2F646B1B6FA86F6013606F043
:101258001F06012707FA06F6BAE72026F6E792FAEC
:10126800A2F242B1B2FA82F2013202F01F0202EB9C
:1012780042021205B6E72022F6E700BF00F0FF039E
:10128800FFFF070000007F400000088000030050B7
:10129800000021C31000C090000052C7000084CB9A
:1012A800CDB9900E0130800600F0F840FDB9970ED8
:1012B800013707F01F070126BE4030432DBB920EB1
:1012C800013202F01F0202EB42021E3A120542F0FE
:1012D8000072104387E792FAA2F030B1B0FA80F0BA
:1012E8000130800600F0F840E0E72020F8E792FAA5
:1012F800A2F646B1B6FA86F6013606F01F060127B1
:1013080007FA06F6D9E72026F6E792FAA2F25AB1CA
:10131800B2FA82F2013202F01F0202EB42021E3AD6
:10132800120542F00072D4E72022F3E711F4000F0F
:101338007FF4A5AE1A68B2F1A04F01D00020FAE5FB
:1013480040F4000023498A6822F0E0721043886064
:10135800214A126892092149A1FB0212920901321D
:1013680002EB420292000192019A1AB1019A013AE3
:101378000192F9E70020DEE511F0807F7FF483AE6B
:101388001968174A91421CD040F0807011498A6848
:1013980022F0E072104388600020CCE511F4800F41
:1013A80011D119680E4A91420FD040F480020948C1
:1013B800816821F0E0710A4382600020BBE50020CB
:1013C800B9E50020B7E50020B5E50020B3E5022027
:1013D800B4E500BF0003005000000020632D3E0567
:1013E8000001005090F85820012A7FD010B49DB019
:1013F8000346012280F858200022189219920068AA
:10140800B0F1A04F39D000220192019A002A37D0BA
:10141800926812F0040200D00122806810F0040FD4
:1014280054D1002A52D10A68002A32D0304CA2681E
:1014380022F46042486893F838C040EA4C300243CE
:10144800A2604FF0A042906810F0010000D0012087
:10145800284A926812F0010200D00122024341D1C9
:10146800234CA26822F4716222F00F02086889688E
:1014780001430A43A26000202DE01E4A0192C4E7FE
:10148800DA6D42F02002DA65002283F85820012044
:1014980024E017498A6822F460428A604FF0A0422B
:1014A800916811F0010100D00121124A926812F0EE
:1014B800010200D001220A4316D10D498A6822F49C
:1014C800716222F00F028A60002004E0DA6D42F0B7
:1014D8002002DA650120002283F858201DB05DF84B
:1014E800044B70470020F6E70020F4E7022070471D
:1014F8000003005000010050074AD36823F4E0635A
:101508001B041B0C000200F4E060034343F0BF63BC
:1015180043F40033D360704700ED00E000B5194B89
:10152800DB68C3F30223C3F1070CBCF1040F28BF27
:101538004FF0040C03F1040EBEF1060F18D9033B5B
:101548004FF0FF3E0EFA0CFC21EA0C0199400EFA0E
:1015580003FE22EA0E020A4300280BDB1201D2B274
:1015680000F1604000F5614080F800235DF804FB5D
:101578000023E5E700F00F001201D2B2024B1A5423
:10158800F4E700BF00ED00E014ED00E00138B0F131
:10159800807F0BD24FF0E0235861054AF02182F892
:1015A80023100020986107221A61704701207047B4
:1015B80000ED00E010B4154B03640168D1F88020F9
:1015C80022F4F812446B42EA0442C1F88020104A1F
:1015D80042640168D1F8802022F07062846B42EA8C
:1015E8000462C1F880200B4A8264D832C264D832BF
:1015F80002651832426502E0002243F8042B064ACD
:101608009342F9D95DF8044B704700BF00A400402D
:1016180070A40040B0A400404FA70040002800F08C
:10162800E38038B5044690F85C30D3B122689369FA
:1016380023F010039361FFF72DFB054623689A6991
:1016480012F0080F12D0FFF725FB401B0A28F5D926
:10165800236E43F001032366032384F85C300120E2
:1016680038BD80F85D30FFF7ABF9DFE79A6942F0E3
:1016780001029A61FFF70EFB054623689A6912F08A
:10168800010F0DD1FFF706FB401B0A28F5D9236E81
:1016980043F001032366032384F85C300120DFE76D
:1016A8009A6942F002029A612268504B9A4242D0EB
:1016B800237C012B45D02268936943F04003936152
:1016C800637C012B43D02268936923F480439361A0
:1016D800A37C012B41D02268936943F48053936122
:1016E8002268936923F44073A1680B4393612268CD
:1016F800936923F0A40393612268136923F010030C
:101708001361E368012B2ED0002B31D0022B54D06B
:101718002268936943F0800393612268136943F058
:1017280010031361E368032B22D12268936943F005
:10173800200393611CE06268A3F58063C3F8002569
:10174800B6E72268936923F040039361B8E72268FB
:10175800936943F480439361BAE72268936923F459
:1017680080539361BCE72268936943F00403936153
:10177800A3695A1EE369013B1B0243EA4263226ADA
:10178800013A13436269013A216843EA0243CB6193
:10179800A368B3F5407F16D02268D2F8C030E16B59
:1017A8000B43C2F8C0302046FFF704FF0020A065B5
:1017B8002066012384F85C3052E72268936943F07D
:1017C80020039361D4E7A36A013BE26A013A43EA42
:1017D8000223226B013A43EA0213626A013A216842
:1017E80043EA0243CB60D7E701207047006400401A
:1017F80090F85C30013BDBB2012B05D9036E43F056
:1018080002030366012070470B68A3B110B4CA68CD
:101818000B6943EA42724B698C6843EA8473406CF3
:10182800496800EBC10C40F83120CCF804300020A6
:101838005DF8044B70478A68CB68DB0643EA82731D
:101848000A6943EA02434A691343026C496842F849
:1018580021300020704790F85CC05FFA8CFCBCF126
:10186800010F05D0036E43F004030366012070479F
:1018780010B40468D4F8800020F03F00920042EAD7
:10188800011242EA4303019A1A430243C4F8802032
:1018980000205DF8044B704790F85C30DBB2012BF8
:1018A80005D0036E43F0040303660120704702234A
:1018B80080F85C300268936923F001039361002388
:1018C800036618467047000070B590F85C40E4B2B3
:1018D800022C7DD140290BD00468D4F8985015F01B
:1018E8000F0F1BD1036E43F480730366012074E06D
:1018F8000468D4F8905015F00F0F05D1036E43F427
:1019080080730366012068E0D4F89060C6F301266E
:10191800846C06EBC60504EBC50C08E0D4F89860A7
:10192800C6F30126C46C06EBC60504EBC50CDCF84F
:10193800004004F08044546074BBDCF80040C4F3F9
:101948008A441460DCF8004004F000549460DCF829
:10195800004004F000441461BCF80440D461DCF891
:10196800044004F47024D460DCF8044004F48014C7
:101978005461DCF8044004F4001494619CF80740B6
:1019880004F07F041462DCF80440E40F54620CF1A4
:10199800080E4FF0000C0BE0DCF8004024F0604427
:1019A8001460CFE71EF80C4003F80C400CF1010C52
:1019B800D4890A4D2C5D6445F4D8402904D00368C5
:1019C800C3F89C60002008E00368C3F89460F9E756
:1019D800036E43F008030366012070BDBC3C000899
:1019E800402905D00368D3F8980000F00F0070472D
:1019F8000368D3F8900000F00F00704790F85C304F
:101A0800013BDBB2012B05D9036E43F002030366E9
:101A18000120704770B40468A36D11F0070602D066
:101A280013F0010F23D011F0380F02D013F0020F7A
:101A38001DD011F4E07F02D013F0040F17D011F479
:101A4800F05F02D013F0080F11D011F4604F02D0EC
:101A580013F0100F0BD011F4403F02D013F0200FF9
:101A680005D011F47C0F06D013F0400F03D1E56DBB
:101A780045F00105E56516B113F0010F23D111F00A
:101A8800380F02D013F0020F1DD111F4E07F02D0FD
:101A980013F0040F17D111F4F05F02D013F0080F00
:101AA80011D111F4604F02D013F0100F0BD111F4C3
:101AB800403F02D013F0200F05D111F47C0F07D05E
:101AC80013F0400F04D00468E36D43F00203E365AC
:101AD80011F0800F05D00468D4F8DC301343C4F843
:101AE800DC3011F4807F05D00468D4F8E03013436B
:101AF800C4F8E0300268536D0B435365002070BC96
:101B08007047704770477047704770477047704715
:101B1800704770472DE9F843044603681A6D02F4CC
:101B2800E0595A6D09EA02091A6D02F007085A6D60
:101B380008EA02081F6D07F038075A6D17401D6D37
:101B480005F471055A6D15401E6D06F460265A6D30
:101B580016401A6D12F0400F03D05A6D12F0400F64
:101B680051D123681A6D12F4807F03D05A6D12F494
:101B7800807F4DD1B9F1000F56D1B8F1000F5BD17C
:101B8800002F61D123681A6D12F4007F03D05A6DBB
:101B980012F4007F5FD123681A6D12F0800F03D012
:101BA8005A6D12F0800F5DD123681A6D12F4005F30
:101BB80003D05A6D12F4005F5FD123681A6D12F4D6
:101BC800004F03D05A6D12F4004F5DD123681A6D8F
:101BD80012F4804F0AD05A6D12F4804F06D04FF499
:101BE80080421A65236E43F080032366002E52D18B
:101BF80025B123681D65236E2B432366236E002BB6
:101C080050D1BDE8F88340221A65FFF780FFA8E7A6
:101C1800D3F8D810D3F8E0204FF48070186511403D
:101C28002046FFF771FFA5E72368C3F8509049469F
:101C38002046FFF766FFA0E72368C3F850804146B7
:101C48002046FEF70BFE9BE723681F6539462046B2
:101C5800FEF71EFE96E74FF400721A652046FFF75E
:101C680051FF98E7D3F8D410D3F8DC20802018650A
:101C780011402046FFF747FF96E74FF400521A65D8
:101C88002046FFF742FF98E74FF400421A652046C6
:101C9800FFF73CFF9AE723681E6531462046FFF7A9
:101CA80038FFA5E72046FFF733FFAAE7F0B583B072
:101CB800002336E0052400E00024B4403C4302350C
:101CC800624E46F82540624C2568D44325EA020650
:101CD8004F6817F4803F01D042EA05065C4D2E603C
:101CE8006D6804EA05064F6817F4003F01D042EA20
:101CF8000506574D6E60AD6804EA05064F6817F48F
:101D0800801F01D042EA0506514DAE60ED682C40B7
:101D18004E6816F4001F01D042EA05044C4AD4600C
:101D280001330A6832FA03F400F08D804FF0010C99
:101D38000CFA03FC1CEA0202F2D04C68651E012D65
:101D480003D9112C01D0122C12D185685E0003240E
:101D5800B44025EA0405CC68B4402C438460456847
:101D680025EA0C054C68C4F300149C402C434460DD
:101D7800C5684FEA430E032404FA0EF46FEA040C14
:101D880025EA04058C6804FA0EF42C43C4604C68F8
:101D9800022C01D0122C0FD1DD08083550F825701F
:101DA80003F00706B6000F24B44027EA04070C69BD
:101DB800B4403C4340F8254004680CEA040C4C68E5
:101DC80004F0030404FA0EF444EA0C0404604C68BA
:101DD80014F0805FA4D01F4C256E45F001052566E0
:101DE800246E04F001040194019C9D08AE1C174C5C
:101DF80054F8267003F00306B6000F24B44027EA0F
:101E08000407B0F1904F3FF457AF134CA04212D0E3
:101E180004F58064A04210D004F58064A0420ED07E
:101E280004F58064A0420CD004F58064A0423FF41D
:101E380041AF062441E701243FE702243DE703249C
:101E48003BE7042439E703B0F0BD00BF00000140C0
:101E58000004014000100240000400480AB18161FA
:101E6800704781627047436901EA030221EA03016E
:101E780041EA024181617047002836D13E4B1B6818
:101E880003F4C063B3F5806F08D03B4AD2F88030C2
:101E980023F48073C2F8803000207047364AD2F8A5
:101EA800803023F48073C2F88030136823F4C06351
:101EB80043F400731360314B1B68322202FB03F3B7
:101EC8002F4AA2FB03239B0C013300E0013B2A4A63
:101ED800526912F4806F01D0002BF7D1264B5B6951
:101EE80013F4806F44D100207047B0F5007F08D00C
:101EF800214A136823F4C06343F48063136000200D
:101F080070471D4B1B6803F4C063B3F5806F08D09E
:101F1800194AD2F8803043F48073C2F88030002028
:101F28007047154AD2F8803043F48073C2F8803085
:101F3800136823F4C06343F4007313600F4B1B68EA
:101F4800322202FB03F30E4AA2FB03239B0C01334C
:101F580000E0013B084A526912F4806F01D0002B5F
:101F6800F7D1054B5B6913F4806F03D100207047EC
:101F780003207047032070470070004000000020D5
:101F880083DE1B43024A936843F48043936070479F
:101F980000700040124BDA6802F00302DB68C3F3FA
:101FA80003130133032A11D00E48B0FBF3F00C4B96
:101FB800DB68C3F3062303FB00F0094BDB68C3F3BC
:101FC800416301335B00B0FBF3F070470648B0FB98
:101FD800F3F0034BDB68C3F3062303FB00F0ECE7E5
:101FE800001002400024F40000127A00002800F0DB
:101FF800548270B582B00446036813F0010F37D0DD
:10200800A44A936803F00C03D26802F003020C2B75
:1020180023D0082B23D06368B3F5803F4ED0B3F5A7
:10202800A02F51D09B4B1A6822F480321A601A688C
:1020380022F480221A606368002B52D0FEF72AFE31
:102048000546944B1B6813F4003F11D1FEF722FE9E
:10205800401B6428F5D9032028E2032AD9D18D4BE7
:102068001B6813F4003F03D06368002B00F017824D
:10207800236813F0020F5DD0864A936803F00C03BF
:10208800D26802F003020C2B3AD0042B3AD0E36852
:10209800002B75D07F4A136843F480731360FEF7F2
:1020A800F9FD05467B4B1B6813F4806F5FD1FEF783
:1020B800F1FD401B0228F5D90320F7E1754A1368A2
:1020C80043F480331360B6E703F18043A3F53C3350
:1020D8001A6842F480221A601A6842F480321A6040
:1020E800A9E7FEF7D7FD05466A4B1B6813F4003FC6
:1020F800BED0FEF7CFFD401B6428F5D90320D5E1FB
:10210800022AC2D1634B1B6813F4806F03D0E368C3
:10211800002B00F0C6815F4A536823F0FE43216913
:1021280043EA016353605C4B1868FEF76FFD0028B3
:1021380040F0B981236813F0080F4CD063699BB352
:10214800544AD2F8943043F00103C2F89430FEF7B1
:10215800A1FD05464F4BD3F8943013F0020F3AD146
:10216800FEF798FD401B0228F4D903209EE1494A56
:10217800536823F0FE43216943EA01635360D9E7BA
:10218800444A136823F480731360FEF783FD054601
:10219800404B1B6813F4806FCCD0FEF77BFD401BCF
:1021A8000228F5D9032081E13A4AD2F8943023F085
:1021B8000103C2F89430FEF76DFD0546354BD3F8A0
:1021C800943013F0020F06D0FEF764FD401B02287E
:1021D800F4D903206AE1236813F0040F00F081802A
:1021E8002C4B9B6D13F0805F36D12A4B9A6D42F0D1
:1021F80080529A659B6D03F080530193019B0125E2
:10220800264B1B6813F4807F28D0A368012B39D094
:10221800052B45D01F4BD3F8902022F00102C3F8BC
:102228009020D3F8902022F00402C3F89020A368ED
:10223800002B43D0FEF72EFD0646164BD3F8903000
:1022480013F0020F4CD1FEF725FD801B41F28833B5
:102258009842F2D9032029E10025D1E70F4A1368F3
:1022680043F480731360FEF715FD06460B4B1B689D
:1022780013F4807FC9D1FEF70DFD801B0228F5D924
:10228800032013E1034AD2F8903043F00103C2F867
:102298009030CCE700100240080000200070004099
:1022A8008A4BD3F8902042F00402C3F89020D3F868
:1022B800902042F00102C3F89020B8E7FEF7EAFC4C
:1022C8000646824BD3F8903013F0020F08D0FEF781
:1022D800E1FC801B41F288339842F2D90320E5E003
:1022E800E5B9236813F0200F35D0A369E3B1774A25
:1022F800D2F8983043F00103C2F89830FEF7CAFCD0
:102308000546724BD3F8983013F0020F23D1FEF72D
:10231800C1FC401B0228F4D90320C7E06B4A936D27
:1023280023F080539365DCE7684AD2F8983023F0AD
:102338000103C2F89830FEF7ADFC0546634BD3F8AD
:10234800983013F0020F06D0FEF7A4FC401B0228B9
:10235800F4D90320AAE0E369002B00F0A6805B4AC9
:10236800926802F00C020C2A69D0022B1DD0574B40
:102378001A6822F080721A60DA6822F00302DA60C2
:10238800DA6822F0887222F48032DA60FEF782FC82
:1023980004464E4B1B6813F0007F4ED0FEF77AFCC4
:1023A800001B0228F5D9032080E0484A136823F06F
:1023B80080731360FEF76EFC0546444B1B6813F0F0
:1023C800007F06D0FEF766FC401B0228F5D90320E3
:1023D8006CE03E4AD3683E491940236A606A013876
:1023E80043EA0013A06A43EA0023206B400801383F
:1023F80043EA4053606B4008013843EA4063E06AAF
:1024080043EAC0631943D160136843F080731360D3
:10241800D36843F08073D360FEF73CFC04462B4B33
:102428001B6813F0007F06D1FEF734FC001B02285E
:10243800F5D903203AE0002038E0002036E0012BEF
:1024480036D0224BDB6803F00301226A914231D176
:1024580003F0F002616A0139B2EB011F2CD103F4D9
:10246800FE42A16AB2EB012F28D103F07842E16A5B
:10247800B2EBC16F24D103F4C001226B5208013AB8
:10248800B1EB425F1ED103F0C063626B5208013AA0
:10249800B3EB426F18D1002008E0012070470120FB
:1024A80004E0012002E0012000E0002002B070BD3D
:1024B8000120FBE70120F9E70120F7E70120F5E714
:1024C8000120F3E70120F1E70120EFE700100240C7
:1024D8000C809F011E4B9B6803F00C03042B33D028
:1024E8001B4B9B6803F00C03082B2FD0184B9B68E1
:1024F80003F00C030C2B01D000207047144BDA6852
:1025080002F00302DB68C3F303130133032A11D07B
:102518001048B0FBF3F00E4BDB68C3F3062303FB54
:1025280000F00B4BDB68C3F3416301335B00B0FB86
:10253800F3F070470848B0FBF3F0054BDB68C3F3D2
:10254800062303FB00F0ECE7024870470248704797
:10255800001002400024F40000127A00002800F065
:10256800E680F8B50C460546744B1B6803F00F036C
:102578008B420BD2714A136823F00F030B4313608D
:10258800136803F00F038B4240F0D3802E6816F0D7
:1025980001065FD06B68032B2FD0022B4DD0684B00
:1025A8001B6813F4806F00F0C680FFF793FF654B3C
:1025B80098424DD9624A936823F0F00343F08003B0
:1025C800936080265E4A936823F0030369680B438F
:1025D8009360FEF75FFB0746594B9B6803F00C03BB
:1025E8006A68B3EB820F35D0FEF754FBC01B41F28B
:1025F80088339842F0D9032078E0514B1B6813F0D8
:10260800007F01D1012071E0FFF7C4FC4D4B9842D7
:102618001AD94B4B9B6813F0F00F05D02E6816F0B3
:102628000206CFD0AB688BB9454A936823F0F00314
:1026380043F0800393608026C4E7414B1B6813F482
:10264800003FB2D1012051E00026BBE70026B9E7E0
:102658000026B7E72B6813F0020F48D013F0040FD9
:1026680004D0374A936843F4E06393602B6813F00F
:10267800080F06D0324A936823F47C5343F4E0638E
:1026880093602F4A936823F0F003A9680B43936083
:102698002A4B1B6803F00F03A34230D82B6813F0B2
:1026A800040F06D0264A936823F4E063E9680B43D5
:1026B80093602B6813F0080F07D0214A936823F41E
:1026C8006053296943EAC1039360FFF703FF1C4B7A
:1026D8009B68C3F303131C4AD35C03F01F03D84061
:1026E8001A4B18601A4B1868FEF790FAF8BD802E3E
:1026F800CED1134A936823F0F0039360C8E70F4ADA
:10270800136823F00F0323431360FEF7C3FA06464A
:102718000A4B1B6803F00F03A342BFD0FEF7BAFAB7
:10272800801B41F288339842F2D90320DEE701206A
:1027380070470120DAE70120D8E700BF00200240F7
:102748000010024000B4C404A43C000800000020AB
:1027580008000020014B1868704700BF00000020E7
:1027680008B5FFF7F7FF054B9B68C3F30223044A3C
:10277800D35C03F01F03D84008BD00BF001002401F
:10278800B43C000808B5FFF7E5FF054B9B68C3F3A9
:10279800C223044AD35C03F01F03D84008BD00BF1E
:1027A80000100240B43C0008F0B583B0044603684A
:1027B80013F4002F69D0AE4B9B6D13F0805F1ED1D0
:1027C800AB4B9A6D42F080529A659B6D03F0805333
:1027D8000193019B0126A74A136843F48073136091
:1027E800FEF758FA0546A34B1B6813F4807F08D1FF
:1027F800FEF750FA401B0228F5D9032502E000260F
:10280800E9E7002545BB9A4BD3F8903013F44073A1
:1028180015D0226C9A4212D0954AD2F8903023F4FF
:102828004073D2F8901041F48031C2F89010D2F879
:10283800901021F48031C2F89010C2F8903013F053
:10284800010F10D145B98A4AD2F8903023F4407369
:10285800216C0B43C2F89030C6B1854A936D23F0C2
:102868008053936512E0FEF715FA0746804BD3F8BC
:10287800903013F0020FE5D1FEF70CFAC01B41F2BD
:1028880088339842F2D90325DCE70025236813F042
:10289800010F08D0764AD2F8883023F00303616824
:1028A8000B43C2F88830236813F0020F08D0704A2F
:1028B800D2F8883023F00C03A1680B43C2F88830A3
:1028C800236813F0040F08D0694AD2F8883023F03F
:1028D8003003E1680B43C2F88830236813F0080F0F
:1028E80008D0634AD2F8883023F0C00321690B432B
:1028F800C2F88830236813F0200F08D05C4AD2F859
:10290800883023F4406361690B43C2F88830236838
:1029180013F0400F08D0564AD2F8883023F44053B9
:10292800A1690B43C2F88830236813F0800F08D0E0
:102938004F4AD2F8883023F44043E1690B43C2F888
:102948008830236813F4807F08D0494AD2F8883049
:1029580023F44033216A0B43C2F88830236813F408
:10296800007F08D0424AD2F8883023F44023616AB5
:102978000B43C2F88830236813F4806F0CD03C4AAC
:10298800D2F8883023F44013A16A0B43C2F8883088
:10299800A36AB3F5801F57D0236813F4006F0CD0D7
:1029A800334AD2F8883023F44003E16A0B43C2F873
:1029B8008830E36AB3F5800F4BD0236813F4805F47
:1029C8000CD02B4AD2F8883023F04073216B0B438C
:1029D800C2F88830236BB3F1807F3FD0236813F4AB
:1029E800005F0CD0224AD2F8883023F04063616B34
:1029F8000B43C2F88830636BB3F1006F33D02368A0
:102A080013F4804F0CD01A4AD2F8883023F0406370
:102A1800A16B0B43C2F88830A36BB3F1006F2BD0C6
:102A2800236813F4004F0CD0114AD2F8883023F0F1
:102A38004053E16B0B43C2F88830E36BB3F1805F1E
:102A48001FD0284603B0F0BDD36843F48013D36089
:102A5800A2E7D36843F48013D360AEE7D36843F4A6
:102A68008013D360BAE7D36843F48013D360C6E712
:102A78000010024000700040D36843F48013D36014
:102A8800CEE7D36843F48033D360DAE730B4036A1F
:102A980023F001030362026A4468836923F48033E4
:102AA80023F073030D681D4322F002028B68134361
:102AB8001C4A90420FD002F5006290420BD002F5FA
:102AC8004062904207D002F58062904203D002F53E
:102AD8008062904205D123F00803CA681A4322F0A5
:102AE8000403104A90420FD002F5006290420BD0C6
:102AF80002F54062904207D002F58062904203D00E
:102B080002F58062904205D124F440744A69224358
:102B18008C691443446085614A684263036230BC2F
:102B2800704700BF002C014030B4036A23F480735F
:102B38000362036A4468C26922F4803222F0730295
:102B48000D68154323F400738A6843EA0223184A80
:102B5800904203D002F50062904206D123F400634C
:102B6800CA6843EA022323F48063114A90420FD0D3
:102B780002F5006290420BD002F54062904207D005
:102B880002F58062904203D002F58062904207D13C
:102B980024F440524C6942EA04128C6942EA041453
:102BA8004460C5614A68C263036230BC704700BFB5
:102BB800002C014030B4036A23F480530362036A93
:102BC8004468C26922F0807222F4E6420D6842EA43
:102BD800052223F400538D6843EA0533174DA842B4
:102BE80003D005F50065A84206D123F40043CD685B
:102BF80043EA053323F48043104DA8420FD005F56E
:102C08000065A8420BD005F54065A84207D005F538
:102C18008065A84203D005F58065A84207D124F451
:102C2800404C4C694CEA841C8C694CEA841444601E
:102C3800C2614A680264036230BC7047002C0140DC
:102C480030B4036A23F480330362036A4468026D74
:102C580022F4803222F070020D68154323F4003309
:102C68008A6843EA02430F4A90420FD002F5006295
:102C780090420BD002F54062904207D002F5806284
:102C8800904203D002F58062904204D124F480344B
:102C98004A6944EA0224446005654A68826403621A
:102CA80030BC7047002C014030B4036A23F4801311
:102CB8000362036A4468026D22F0807222F4E042E3
:102CC8000D6842EA052223F400138D6843EA055390
:102CD8000F4DA8420FD005F50065A8420BD005F5A9
:102CE8004065A84207D005F58065A84203D005F5E0
:102CF8008065A84204D124F480244D6944EA8524DF
:102D0800446002654A68C264036230BC704700BF11
:102D1800002C014003682C4A90420ED0B0F1804F3D
:102D28000BD0A2F59432904207D002F5806290420F
:102D380003D002F59632904203D123F070034A681B
:102D48001343214A90421AD0B0F1804F17D0A2F510
:102D58009432904213D002F5806290420FD002F56F
:102D6800963290420BD002F54062904207D002F5AD
:102D78008062904203D002F58062904203D123F42E
:102D88004073CA68134323F080034A6913430360FE
:102D98008B68C3620B6883620B4B98420FD003F5B4
:102DA800006398420BD003F54063984207D003F5BF
:102DB8008063984203D003F58063984201D10B6980
:102DC8000363012343617047002C014060B310B5D1
:102DD800044690F83D3013B3022384F83D30214671
:102DE80051F8040BFFF796FF012384F8483084F864
:102DF8003E3084F83F3084F8403084F8413084F81D
:102E0800423084F8433084F8443084F8453084F8FC
:102E1800463084F8473084F83D30002010BD80F8F3
:102E28003C30FDF729FED7E70120704760B310B5A5
:102E3800044690F83D3013B3022384F83D30214610
:102E480051F8040BFFF766FF012384F8483084F833
:102E58003E3084F83F3084F8403084F8413084F8BC
:102E6800423084F8433084F8443084F8453084F89C
:102E7800463084F8473084F83D30002010BD80F893
:102E88003C30FDF7CFFDD7E70120704760B310B5A0
:102E9800044690F83D3013B3022384F83D302146B0
:102EA80051F8040BFFF736FF012384F8483084F803
:102EB8003E3084F83F3084F8403084F8413084F85C
:102EC800423084F8433084F8443084F8453084F83C
:102ED800463084F8473084F83D30002010BD80F833
:102EE8003C30FDF7B5FDD7E70120704730B4036AE1
:102EF80023F010030362036A4468826922F0807237
:102F080022F4E6420D6842EA052223F020038D6888
:102F180043EA0513174DA84203D005F50065A842FA
:102F280006D123F08003CD6843EA051323F040035C
:102F3800104DA8420FD005F50065A8420BD005F545
:102F48004065A84207D005F58065A84203D005F57D
:102F58008065A84207D124F4406C4C694CEA840C83
:102F68008C694CEA8404446082614A688263036223
:102F780030BC7047002C014090F83C30012B2ED01B
:102F880010B50446012380F83C30142A0FD8DFE836
:102F980002F00B0E0E0E120E0E0E160E0E0E1A0E5E
:102FA8000E0E1E0E0E0E22000068FFF76FFD0020A9
:102FB80084F83C0010BD0068FFF798FFF7E7006849
:102FC800FFF7B2FDF3E70068FFF7F4FDEFE70068ED
:102FD800FFF736FEEBE70068FFF766FEE7E702203B
:102FE800704738B590F83C30012B00F08C800446CF
:102FF8000D46012380F83C30142A1ED8DFE802F081
:103008000B1D1D1D211D1D1D351D1D1D481D1D1DB3
:103018005C1D1D1D6F000068FFF738FD226893696D
:1030280043F0080393612268936923F004039361D2
:103038002268936929690B439361002084F83C0056
:1030480038BD0068FFF752FF2268936943F40063B4
:1030580093612268936923F480639361226893697A
:10306800296943EA01239361E7E70068FFF75CFDFC
:103078002268D36943F00803D3612268D36923F037
:103088000403D3612268D36929690B43D361D4E768
:103098000068FFF78FFD2268D36943F40063D361AA
:1030A8002268D36923F48063D3612268D3692969CC
:1030B80043EA0123D361C0E70068FFF7C1FD226836
:1030C800136D43F0080313652268136D23F004039E
:1030D80013652268136D29690B431365ADE7006812
:1030E800FFF7E2FD2268136D43F40063136522685D
:1030F800136D23F4806313652268136D296943EA0D
:103108000123136599E702209AE7000090F83C2014
:10311800012A40D030B40346012280F83C20022224
:1031280080F83D200068426884681C4DA84203D09E
:1031380005F50065A84203D122F470024D682A43C0
:1031480022F0007222F070020D682A4342601A6869
:103158001248824212D0B2F1804F0FD0A0F59430BD
:1031680082420BD000F58060824207D000F596308D
:10317800824203D000F54060824204D124F08004EA
:10318800896821439160012283F83D20002083F85B
:103198003C0030BC70470220704700BF002C014043
:1031A80090F83C30012B55D010B40246012380F82A
:1031B8003C30CB6823F440738868034323F480636E
:1031C8004868034323F400630868034323F48053E7
:1031D8000869034323F400534869034323F48043F5
:1031E800086B034323F47023886943EA004310689B
:1031F800194CA04203D004F50064A04203D123F087
:103208008053CC692343144CA0420AD004F50064CF
:10321800A04206D04364002082F83C005DF8044BCD
:10322800704723F470038C6A43EA045323F08073D5
:103238000C6A234323F000734C6A2343064CA042D4
:1032480003D004F50064A042E4D123F00053C96A16
:103258000B43DFE702207047002C014070B504469D
:10326800016883680269134342691343C2691343BF
:1032780008688B4A02401A430A602268536823F49C
:103288004053E1680B435360A1692268854B9A4219
:1032980001D0236A1943936823F06E4323F4306303
:1032A8000B4393602268D36A23F00F03616A0B43D0
:1032B800D36223687C4A934223D07C4A934234D019
:1032C8007B4A93424AD07B4A934259D0754A9342EB
:1032D80068D0102273498B4200F09580E069B0F500
:1032E800004F00F0D280082A00F24F81DFE812F088
:1032F8001201340110014D0137014D014D014D01FD
:103308003A0102F55842D2F8882002F00302032A53
:1033180009D8DFE802F002045C060122DAE7042299
:10332800D8E70822D6E71022D4E702F5E632D2F829
:10333800882002F00C020C2A0ED8DFE802F0070DF4
:103348000D0D090D0D0D4A0D0D0D0B000022C1E7E5
:103358000422BFE70822BDE71022BBE702F5E432EA
:10336800D2F8882002F03002202A34D004D8A2B340
:10337800102A34D10422ADE7302A32D10822A9E735
:1033880002F5E232D2F8882002F0C002802A2AD060
:1033980004D852B3402A2AD104229BE7C02A28D154
:1033A800082297E702F5C832D2F8882002F4406272
:1033B800B2F5006F1FD005D8FAB1B2F5806F1ED1F3
:1033C800042287E7B2F5406F1BD1082282E7022268
:1033D80080E702227EE702227CE700227AE71022B9
:1033E80078E7102276E7022274E7002272E71022BB
:1033F80070E710226EE702226CE700226AE71022CB
:1034080068E7102266E7082A00F2AF80DFE802F0DA
:1034180008AD3BAD38ADADAD05004FF4004004E05C
:10342800FFF79EF9002800F0A280626A224B33F869
:103438001220B0FBF2F3656805EB4501994200F2F2
:103448009880B3EB053F00F296800026334631465C
:10345800FCF7BEFE090241EA106100026B08C018C1
:103468002A46334641F10001FCF7B2FEA0F540724E
:10347800124B9A4200F281802368D860304662E09D
:10348800FFF728F8CEE70E48CFE7082A77D8DFE815
:1034980002F0193905763C7676761D00084815E065
:1034A800F369FFCF0080004000380140004400402D
:1034B80000480040004C0040CC3C0008FFFC0F00D6
:1034C8000024F400FFF74CF900285AD0626A324B06
:1034D80033F81230B0FBF3F06268530803EB400393
:1034E800B3FBF2F39BB2A3F110014FF6EF729142D6
:1034F80049D823F00F02C3F3420313432268D36071
:10350800002020E0FFF73EF9DEE7FEF7E3FFDBE708
:10351800224803E0FFF724F9002838D0626A1E4BDE
:1035280033F81230B0FBF3F0636800EB5300B0FBE4
:10353800F3F080B2A0F110024FF6EF739A4228D848
:103548002368D86000200123A4F86A30A4F8683002
:1035580000232367636770BDFFF714F9DCE7FEF704
:10356800B9FFD9E74FF40040D8E70120EBE7002086
:10357800E9E70120E7E70120E5E70120E3E701208B
:10358800E1E70020DFE70120DDE70120DBE700209D
:10359800D9E70120D7E700BFCC3C00080024F4009D
:1035A800836A13F0010F06D00268536823F40033CE
:1035B800C16A0B435360836A13F0020F06D0026896
:1035C800536823F48033016B0B435360836A13F011
:1035D800040F06D00268536823F48023416B0B4321
:1035E8005360836A13F0080F06D00268536823F407
:1035F8000043816B0B435360836A13F0100F06D0AE
:103608000268936823F48053C16B0B439360836A09
:1036180013F0200F06D00268936823F40053016C5E
:103628000B439360836A13F0400F0AD00268536813
:1036380023F48013416C0B435360436CB3F5801F34
:103648000BD0836A13F0800F06D00268536823F406
:103658000023C16C0B43536070470268536823F41E
:10366800C003816C0B435360EBE72DE9F843054633
:103678000F4616469946DDF820802B68DC6937EA44
:1036880004040CBF01240024B44241D1B8F1FF3F27
:10369800F3D0FDF7FFFAA0EB0900404524D8B8F1B4
:1036A800000F21D02B681A6812F0040FE5D0DA69F0
:1036B80012F4006FE1D04FF400621A622A681368AE
:1036C80023F4D07313602A68936823F0010393608E
:1036D8002023C5F88430C5F88830C5F88C3000231D
:1036E80085F88030032014E02A68136823F4D07327
:1036F80013602A68936823F0010393602023C5F8B8
:103708008430C5F88830002385F88030032000E035
:103718000020BDE8F88330B583B004460023C0F824
:103728008C30FDF7B7FA05462268126812F0080FC8
:103738000FD123681B6813F0040F18D12023C4F895
:103748008430C4F888300020E06684F8800003B034
:1037580030BD6FF07E430093034600224FF4001102
:103768002046FFF782FF0028E3D00320EFE76FF041
:103778007E4300932B4600224FF480012046FFF73A
:1037880074FF0028DAD00320E1E778B310B50446C7
:10379800D0F884300BB32423C4F88430226813682B
:1037A80023F0010313602046FFF758FD012813D0CA
:1037B800A36ABBB92268536823F490435360226814
:1037C800936823F02A0393602268136843F0010387
:1037D80013602046FFF79FFF10BD80F88030FDF78B
:1037E800CDF9D8E72046FFF7DBFEE3E70120704775
:1037F800436E2BB90123A0F86A30A0F868307047EF
:1038080030B403689A68C2F342629968490F094D57
:103818006B5CDB00084C615C93FBF1F3A0F86A3049
:10382800AB5CDB00A25C93FBF2F3A0F8683030BC21
:10383800704700BFEC3C0008E43C000890F880307A
:10384800012B18D0012380F880302423C0F884305D
:1038580003681A68196821F00101196022F0005202
:103868000023436601680A602022C0F8842080F89B
:103878008030184670470220704738B590F880307D
:10388800012B1DD00446012380F880302423C0F882
:10389800843003681D681A6822F001021A60026801
:1038A800936823F0604319439160FFF7A1FF2368F1
:1038B8001D602023C4F88430002084F8800038BDBF
:1038C8000220FCE738B590F88030012B1DD0044663
:1038D800012380F880302423C0F8843003681D68F1
:1038E8001A6822F001021A600268936823F0606384
:1038F80019439160FFF77CFF23681D602023C4F8FB
:103908008430002084F8800038BD0220FCE70000E5
:103918000D4885460D480E490E4A002302E0D4584A
:10392800C4500433C4188C42F9D30B4A0B4C0023FF
:1039380001E013600432A242FBD3FDF75DF900F009
:1039480011F8FCF737FFFEE7008000200000002098
:103958000C000020043D00080C000020900300200B
:10396800FEE7000070B50D4D0D4C641BA410002639
:10397800A64209D10B4D0C4C00F084F9641BA4102D
:103988000026A64205D170BD55F8043B984701367C
:10399800EEE755F8043B98470136F2E7FC3C00088F
:1039A800FC3C0008FC3C0008003D000802440346BB
:1039B800934200D1704703F8011BF9E72DE9F0475E
:1039C800089E0D4604460F46002B4AD18A4294466B
:1039D80065D9B2FA82F343B102FA03FCC3F12002BB
:1039E8009F4020FA02F217439C404FEA1C4E1FFAF0
:1039F8008CF5B7FBFEF1220C0EFB117742EA074269
:103A080001FB05F090420AD91CEB020201F1FF37D5
:103A180080F01C81904240F2198102396244121AE6
:103A2800A4B2B2FBFEF00EFB102244EA024400FBF3
:103A380005F5A5420AD91CEB040400F1FF3280F019
:103A48000781A54240F204816444023840EA0140FB
:103A5800641B00211EB1DC400023C6E90043BDE819
:103A6800F0878B4208D9002E00F0ED800021C6E9CE
:103A780000050846BDE8F087B3FA83F1002949D16B
:103A8800AB4202D3824200F2F880841A65EB03024B
:103A980001201746002EE2D0C6E90047DFE702B949
:103AA800FFDEB2FA82F3002B40F090808A1A4FEAC8
:103AB8001C471FFA8CFE0121B2FBF7F507FB152006
:103AC800220C42EA00420EFB05F0904208D91CEB9A
:103AD800020205F1FF3802D2904200F2CB8045463F
:103AE800121AA4B2B2FBF7F007FB102244EA024410
:103AF8000EFB00FEA64508D91CEB040400F1FF32BA
:103B080002D2A64500F2BB801046A4EB0E0440EAA0
:103B180005409FE7C1F120078B4022FA07FC4CEAD9
:103B2800030C05FA01F420FA07F3FD404FEA1C499B
:103B38002343B5FBF9F81FFA8CFE09FB18551C0C3A
:103B480044EA054408FB0EF5A54202FA01F200FA20
:103B580001F00BD91CEB040408F1FF3A80F08880CF
:103B6800A54240F28580A8F102086444641B9DB216
:103B7800B4FBF9F309FB134445EA044403FB0EFEC6
:103B8800A64508D91CEB040403F1FF356CD2A64501
:103B98006AD9023B644443EA0843A3FB0295A4EBB9
:103BA8000E04AC42C846AE4656D353D056B1B0EB1D
:103BB800080264EB0E0404FA07F7CA40CC40174326
:103BC800C6E9007418460021BDE8F087C3F120015A
:103BD80002FA03FC20FA01F225FA01F19D402A437A
:103BE8004FEA1C471FFA8CFEB1FBF7F007FB1015D4
:103BF800110C41EA054100FB0EF58D4204FA03F46D
:103C080008D91CEB010100F1FF382FD28D422DD9C4
:103C180002386144491B92B2B1FBF7F507FB151155
:103C280042EA014205FB0EF1914208D91CEB02025F
:103C380005F1FF3816D2914214D9023D6244521A56
:103C480045EA004138E73146304608E73946E6E6B6
:103C58001046FBE64845A9D2B9EB020865EB0C0E05
:103C6800013BA3E74546EAE72B4694E74046D1E700
:103C7800D0467BE7023D624432E708460AE76444DF
:103C8800023842E7F8B500BFF8BC08BC9E4670474A
:0C3C9800F8B500BFF8BC08BC9E467047A1
:103CA40000000000000000000102030406070809E8
:103CB40000000000010203040001020304050607DA
:103CC400080C101418203040010002000400060003
:103CD40008000A000C0010002000400080000001D1
:103CE40008040204080101010101010307010000A5
:083CF400D0FCFF7F010000007D
:043CFC003102000889
:043D00000D020008A8
:0C3D04000024F40001000000100000008A
:04000005080039199D
:00000001FF
